{
  "contractName": "TodoList",
  "abi": [
    {
      "constant": false,
      "inputs": [
        {
          "name": "index",
          "type": "uint256"
        }
      ],
      "name": "deleteTodoItem",
      "outputs": [
        {
          "name": "success",
          "type": "bool"
        }
      ],
      "payable": false,
      "stateMutability": "nonpayable",
      "type": "function"
    },
    {
      "constant": true,
      "inputs": [],
      "name": "getTodoItems",
      "outputs": [
        {
          "name": "",
          "type": "bytes32[]"
        },
        {
          "name": "",
          "type": "bool[]"
        }
      ],
      "payable": false,
      "stateMutability": "view",
      "type": "function"
    },
    {
      "constant": false,
      "inputs": [
        {
          "name": "_value",
          "type": "bytes32"
        }
      ],
      "name": "createTodo",
      "outputs": [
        {
          "name": "",
          "type": "bool"
        }
      ],
      "payable": false,
      "stateMutability": "nonpayable",
      "type": "function"
    },
    {
      "constant": true,
      "inputs": [],
      "name": "owner",
      "outputs": [
        {
          "name": "",
          "type": "address"
        }
      ],
      "payable": false,
      "stateMutability": "view",
      "type": "function"
    },
    {
      "constant": true,
      "inputs": [
        {
          "name": "",
          "type": "uint256"
        }
      ],
      "name": "todoItems",
      "outputs": [
        {
          "name": "value",
          "type": "bytes32"
        },
        {
          "name": "active",
          "type": "bool"
        }
      ],
      "payable": false,
      "stateMutability": "view",
      "type": "function"
    },
    {
      "constant": false,
      "inputs": [
        {
          "name": "newOwner",
          "type": "address"
        }
      ],
      "name": "transferOwnership",
      "outputs": [],
      "payable": false,
      "stateMutability": "nonpayable",
      "type": "function"
    },
    {
      "anonymous": false,
      "inputs": [
        {
          "indexed": false,
          "name": "todoId",
          "type": "uint256"
        },
        {
          "indexed": false,
          "name": "value",
          "type": "bytes32"
        }
      ],
      "name": "NewTodo",
      "type": "event"
    },
    {
      "anonymous": false,
      "inputs": [
        {
          "indexed": true,
          "name": "previousOwner",
          "type": "address"
        },
        {
          "indexed": true,
          "name": "newOwner",
          "type": "address"
        }
      ],
      "name": "OwnershipTransferred",
      "type": "event"
    }
  ],
  "bytecode": "0x6060604052336000806101000a81548173ffffffffffffffffffffffffffffffffffffffff021916908373ffffffffffffffffffffffffffffffffffffffff1602179055506108e5806100536000396000f300606060405260043610610078576000357c0100000000000000000000000000000000000000000000000000000000900463ffffffff16806312f616a21461007d5780633b73a192146100b8578063413c40961461016a5780638da5cb5b146101a9578063c627e610146101fe578063f2fde38b14610248575b600080fd5b341561008857600080fd5b61009e6004808035906020019091905050610281565b604051808215151515815260200191505060405180910390f35b34156100c357600080fd5b6100cb61039a565b604051808060200180602001838103835285818151815260200191508051906020019060200280838360005b838110156101125780820151818401526020810190506100f7565b50505050905001838103825284818151815260200191508051906020019060200280838360005b83811015610154578082015181840152602081019050610139565b5050505090500194505050505060405180910390f35b341561017557600080fd5b61018f6004808035600019169060200190919050506104c7565b604051808215151515815260200191505060405180910390f35b34156101b457600080fd5b6101bc610638565b604051808273ffffffffffffffffffffffffffffffffffffffff1673ffffffffffffffffffffffffffffffffffffffff16815260200191505060405180910390f35b341561020957600080fd5b61021f600480803590602001909190505061065d565b604051808360001916600019168152602001821515151581526020019250505060405180910390f35b341561025357600080fd5b61027f600480803573ffffffffffffffffffffffffffffffffffffffff1690602001909190505061069d565b005b6000806003805490508310151561029757610394565b8290505b600160038054905003811015610335576003600182018154811015156102bd57fe5b90600052602060002090600202016003828154811015156102da57fe5b9060005260206000209060020201600082015481600001906000191690556001820160009054906101000a900460ff168160010160006101000a81548160ff021916908315150217905550905050808060010191505061029b565b600360016003805490500381548110151561034c57fe5b90600052602060002090600202016000808201600090556001820160006101000a81549060ff02191690555050600380548091906001900361038e91906107f2565b50600191505b50919050565b6103a2610824565b6103aa610838565b60006103b4610824565b6103bc610838565b60006003805490509350836040518059106103d45750595b90808252806020026020018201604052509250836040518059106103f55750595b90808252806020026020018201604052509150600090505b838110156104b95760038181548110151561042457fe5b906000526020600020906002020160000154838281518110151561044457fe5b90602001906020020190600019169081600019168152505060038181548110151561046b57fe5b906000526020600020906002020160010160009054906101000a900460ff16828281518110151561049857fe5b9060200190602002019015159081151581525050808060010191505061040d565b828295509550505050509091565b6000806001600380548060010182816104e0919061084c565b916000526020600020906002020160006040805190810160405280886000191681526020016001151581525090919091506000820151816000019060001916905560208201518160010160006101000a81548160ff0219169083151502179055505050039050336001600083815260200190815260200160002060006101000a81548173ffffffffffffffffffffffffffffffffffffffff021916908373ffffffffffffffffffffffffffffffffffffffff160217905550600260003373ffffffffffffffffffffffffffffffffffffffff1673ffffffffffffffffffffffffffffffffffffffff168152602001908152602001600020600081548092919060010191905055507f3139f97b11eb572c020c659129fd1f3bbeafa5279494552008c9118cd56b3f1981846040518083815260200182600019166000191681526020019250505060405180910390a16001915050919050565b6000809054906101000a900473ffffffffffffffffffffffffffffffffffffffff1681565b60038181548110151561066c57fe5b90600052602060002090600202016000915090508060000154908060010160009054906101000a900460ff16905082565b6000809054906101000a900473ffffffffffffffffffffffffffffffffffffffff1673ffffffffffffffffffffffffffffffffffffffff163373ffffffffffffffffffffffffffffffffffffffff161415156106f857600080fd5b600073ffffffffffffffffffffffffffffffffffffffff168173ffffffffffffffffffffffffffffffffffffffff161415151561073457600080fd5b8073ffffffffffffffffffffffffffffffffffffffff166000809054906101000a900473ffffffffffffffffffffffffffffffffffffffff1673ffffffffffffffffffffffffffffffffffffffff167f8be0079c531659141344cd1fd0a4f28419497f9722a3daafe3b4186f6b6457e060405160405180910390a3806000806101000a81548173ffffffffffffffffffffffffffffffffffffffff021916908373ffffffffffffffffffffffffffffffffffffffff16021790555050565b81548183558181151161081f5760020281600202836000526020600020918201910161081e919061087e565b5b505050565b602060405190810160405280600081525090565b602060405190810160405280600081525090565b81548183558181151161087957600202816002028360005260206000209182019101610878919061087e565b5b505050565b6108b691905b808211156108b2576000808201600090556001820160006101000a81549060ff021916905550600201610884565b5090565b905600a165627a7a723058201b68c6d2eaa849ad9a2f7933b4730d6b0af5ee72c58e26df41308197d6ce78730029",
  "source": "pragma solidity ^0.4.17;\n\nimport \"./Ownable.sol\";\n\ncontract TodoList is Ownable {\n\n\n    event NewTodo(uint todoId, bytes32 value);\n    // event DeleteTodo(uint todoId, string value);\n\n    //every user has an array of todo items\n    mapping(uint => address) todoOwner;\n    //every address has a certain number of todos on it\n    mapping(address => uint) ownerTodoCount;\n\n    TodoItem[] public todoItems;\n\n    struct TodoItem {\n        bytes32 value;\n        bool active;\n    }\n\n    function createTodo(bytes32 _value) public returns(bool) {\n        uint id = todoItems.push(TodoItem(_value, true)) - 1;\n        todoOwner[id] = msg.sender;\n        ownerTodoCount[msg.sender]++;\n        NewTodo(id, _value);\n        return true;\n    }\n    \n    function getTodoItems() constant public returns (bytes32[], bool[]) {\n        uint length = todoItems.length;\n    \n        bytes32[] memory values = new bytes32[](length);\n        bool[] memory actives = new bool[](length);\n    \n        for (uint i = 0; i < length; i++) {\n          values[i] = todoItems[i].value;\n          actives[i] = todoItems[i].active;\n        }\n    \n        return (values, actives);\n    }\n    \n    function deleteTodoItem(uint index) public returns (bool success) {\n        if (index >= todoItems.length) return;\n\n        for (uint i = index; i < todoItems.length - 1; i++){\n            todoItems[i] = todoItems[i+1];\n        }\n\n        delete todoItems[todoItems.length - 1];\n        todoItems.length--;\n        return true;\n    }  \n    \n}\n",
  "sourcePath": "/home/ubuntu/workspace/contracts/TodoList.sol",
  "compiler": {
    "name": "solc",
    "version": "0.4.18+commit.9cf6e910.Emscripten.clang"
  },
  "schemaVersion": "1.0.1",
  "updatedAt": "2018-02-02T05:57:25.296Z"
}